{
  "_format": "hh-sol-artifact-1",
  "contractName": "GymCoin",
  "sourceName": "contracts/GymCoin.sol",
  "abi": [
    {
      "inputs": [
        {
          "internalType": "uint256",
          "name": "initialSupply",
          "type": "uint256"
        },
        {
          "internalType": "uint256",
          "name": "initialSellRate",
          "type": "uint256"
        },
        {
          "internalType": "uint256",
          "name": "initialBuyRate",
          "type": "uint256"
        },
        {
          "internalType": "uint256",
          "name": "initialRateDivisor",
          "type": "uint256"
        }
      ],
      "stateMutability": "nonpayable",
      "type": "constructor"
    },
    {
      "inputs": [
        {
          "internalType": "address",
          "name": "spender",
          "type": "address"
        },
        {
          "internalType": "uint256",
          "name": "allowance",
          "type": "uint256"
        },
        {
          "internalType": "uint256",
          "name": "needed",
          "type": "uint256"
        }
      ],
      "name": "ERC20InsufficientAllowance",
      "type": "error"
    },
    {
      "inputs": [
        {
          "internalType": "address",
          "name": "sender",
          "type": "address"
        },
        {
          "internalType": "uint256",
          "name": "balance",
          "type": "uint256"
        },
        {
          "internalType": "uint256",
          "name": "needed",
          "type": "uint256"
        }
      ],
      "name": "ERC20InsufficientBalance",
      "type": "error"
    },
    {
      "inputs": [
        {
          "internalType": "address",
          "name": "approver",
          "type": "address"
        }
      ],
      "name": "ERC20InvalidApprover",
      "type": "error"
    },
    {
      "inputs": [
        {
          "internalType": "address",
          "name": "receiver",
          "type": "address"
        }
      ],
      "name": "ERC20InvalidReceiver",
      "type": "error"
    },
    {
      "inputs": [
        {
          "internalType": "address",
          "name": "sender",
          "type": "address"
        }
      ],
      "name": "ERC20InvalidSender",
      "type": "error"
    },
    {
      "inputs": [
        {
          "internalType": "address",
          "name": "spender",
          "type": "address"
        }
      ],
      "name": "ERC20InvalidSpender",
      "type": "error"
    },
    {
      "inputs": [
        {
          "internalType": "address",
          "name": "owner",
          "type": "address"
        }
      ],
      "name": "OwnableInvalidOwner",
      "type": "error"
    },
    {
      "inputs": [
        {
          "internalType": "address",
          "name": "account",
          "type": "address"
        }
      ],
      "name": "OwnableUnauthorizedAccount",
      "type": "error"
    },
    {
      "anonymous": false,
      "inputs": [
        {
          "indexed": true,
          "internalType": "address",
          "name": "owner",
          "type": "address"
        },
        {
          "indexed": true,
          "internalType": "address",
          "name": "spender",
          "type": "address"
        },
        {
          "indexed": false,
          "internalType": "uint256",
          "name": "value",
          "type": "uint256"
        }
      ],
      "name": "Approval",
      "type": "event"
    },
    {
      "anonymous": false,
      "inputs": [
        {
          "indexed": true,
          "internalType": "address",
          "name": "previousOwner",
          "type": "address"
        },
        {
          "indexed": true,
          "internalType": "address",
          "name": "newOwner",
          "type": "address"
        }
      ],
      "name": "OwnershipTransferred",
      "type": "event"
    },
    {
      "anonymous": false,
      "inputs": [
        {
          "indexed": true,
          "internalType": "address",
          "name": "from",
          "type": "address"
        },
        {
          "indexed": true,
          "internalType": "address",
          "name": "to",
          "type": "address"
        },
        {
          "indexed": false,
          "internalType": "uint256",
          "name": "value",
          "type": "uint256"
        }
      ],
      "name": "Transfer",
      "type": "event"
    },
    {
      "inputs": [
        {
          "internalType": "address",
          "name": "owner",
          "type": "address"
        },
        {
          "internalType": "address",
          "name": "spender",
          "type": "address"
        }
      ],
      "name": "allowance",
      "outputs": [
        {
          "internalType": "uint256",
          "name": "",
          "type": "uint256"
        }
      ],
      "stateMutability": "view",
      "type": "function"
    },
    {
      "inputs": [
        {
          "internalType": "address",
          "name": "spender",
          "type": "address"
        },
        {
          "internalType": "uint256",
          "name": "value",
          "type": "uint256"
        }
      ],
      "name": "approve",
      "outputs": [
        {
          "internalType": "bool",
          "name": "",
          "type": "bool"
        }
      ],
      "stateMutability": "nonpayable",
      "type": "function"
    },
    {
      "inputs": [
        {
          "internalType": "address",
          "name": "account",
          "type": "address"
        }
      ],
      "name": "balanceOf",
      "outputs": [
        {
          "internalType": "uint256",
          "name": "",
          "type": "uint256"
        }
      ],
      "stateMutability": "view",
      "type": "function"
    },
    {
      "inputs": [
        {
          "internalType": "uint256",
          "name": "gcAmount",
          "type": "uint256"
        }
      ],
      "name": "buy",
      "outputs": [],
      "stateMutability": "payable",
      "type": "function"
    },
    {
      "inputs": [],
      "name": "buyRate",
      "outputs": [
        {
          "internalType": "uint256",
          "name": "",
          "type": "uint256"
        }
      ],
      "stateMutability": "view",
      "type": "function"
    },
    {
      "inputs": [],
      "name": "decimals",
      "outputs": [
        {
          "internalType": "uint8",
          "name": "",
          "type": "uint8"
        }
      ],
      "stateMutability": "view",
      "type": "function"
    },
    {
      "inputs": [],
      "name": "name",
      "outputs": [
        {
          "internalType": "string",
          "name": "",
          "type": "string"
        }
      ],
      "stateMutability": "view",
      "type": "function"
    },
    {
      "inputs": [],
      "name": "owner",
      "outputs": [
        {
          "internalType": "address",
          "name": "",
          "type": "address"
        }
      ],
      "stateMutability": "view",
      "type": "function"
    },
    {
      "inputs": [],
      "name": "rateDivisor",
      "outputs": [
        {
          "internalType": "uint256",
          "name": "",
          "type": "uint256"
        }
      ],
      "stateMutability": "view",
      "type": "function"
    },
    {
      "inputs": [],
      "name": "renounceOwnership",
      "outputs": [],
      "stateMutability": "nonpayable",
      "type": "function"
    },
    {
      "inputs": [
        {
          "internalType": "uint256",
          "name": "gcAmount",
          "type": "uint256"
        }
      ],
      "name": "sell",
      "outputs": [],
      "stateMutability": "nonpayable",
      "type": "function"
    },
    {
      "inputs": [],
      "name": "sellRate",
      "outputs": [
        {
          "internalType": "uint256",
          "name": "",
          "type": "uint256"
        }
      ],
      "stateMutability": "view",
      "type": "function"
    },
    {
      "inputs": [
        {
          "internalType": "uint256",
          "name": "newRateDivisor",
          "type": "uint256"
        }
      ],
      "name": "setRateDivisor",
      "outputs": [],
      "stateMutability": "nonpayable",
      "type": "function"
    },
    {
      "inputs": [
        {
          "internalType": "uint256",
          "name": "newSellRate",
          "type": "uint256"
        },
        {
          "internalType": "uint256",
          "name": "newBuyRate",
          "type": "uint256"
        }
      ],
      "name": "setRates",
      "outputs": [],
      "stateMutability": "nonpayable",
      "type": "function"
    },
    {
      "inputs": [],
      "name": "symbol",
      "outputs": [
        {
          "internalType": "string",
          "name": "",
          "type": "string"
        }
      ],
      "stateMutability": "view",
      "type": "function"
    },
    {
      "inputs": [],
      "name": "totalSupply",
      "outputs": [
        {
          "internalType": "uint256",
          "name": "",
          "type": "uint256"
        }
      ],
      "stateMutability": "view",
      "type": "function"
    },
    {
      "inputs": [
        {
          "internalType": "address",
          "name": "to",
          "type": "address"
        },
        {
          "internalType": "uint256",
          "name": "value",
          "type": "uint256"
        }
      ],
      "name": "transfer",
      "outputs": [
        {
          "internalType": "bool",
          "name": "",
          "type": "bool"
        }
      ],
      "stateMutability": "nonpayable",
      "type": "function"
    },
    {
      "inputs": [
        {
          "internalType": "address",
          "name": "from",
          "type": "address"
        },
        {
          "internalType": "address",
          "name": "to",
          "type": "address"
        },
        {
          "internalType": "uint256",
          "name": "value",
          "type": "uint256"
        }
      ],
      "name": "transferFrom",
      "outputs": [
        {
          "internalType": "bool",
          "name": "",
          "type": "bool"
        }
      ],
      "stateMutability": "nonpayable",
      "type": "function"
    },
    {
      "inputs": [
        {
          "internalType": "address",
          "name": "newOwner",
          "type": "address"
        }
      ],
      "name": "transferOwnership",
      "outputs": [],
      "stateMutability": "nonpayable",
      "type": "function"
    },
    {
      "inputs": [
        {
          "internalType": "uint256",
          "name": "amount",
          "type": "uint256"
        }
      ],
      "name": "withdrawEther",
      "outputs": [],
      "stateMutability": "nonpayable",
      "type": "function"
    },
    {
      "stateMutability": "payable",
      "type": "receive"
    }
  ],
  "bytecode": "0x608060405234801561001057600080fd5b506040516124b73803806124b78339818101604052810190610032919061054c565b336040518060400160405280600881526020017f47796d20436f696e0000000000000000000000000000000000000000000000008152506040518060400160405280600281526020017f474300000000000000000000000000000000000000000000000000000000000081525081600390816100ae91906107f9565b5080600490816100be91906107f9565b505050600073ffffffffffffffffffffffffffffffffffffffff168173ffffffffffffffffffffffffffffffffffffffff16036101335760006040517f1e4fbdf700000000000000000000000000000000000000000000000000000000815260040161012a919061090c565b60405180910390fd5b6101428161019560201b60201c565b506101773361015561025b60201b60201c565b600a6101619190610a96565b8661016c9190610ae1565b61026460201b60201c565b82600681905550816007819055508060088190555050505050610bb8565b6000600560009054906101000a900473ffffffffffffffffffffffffffffffffffffffff16905081600560006101000a81548173ffffffffffffffffffffffffffffffffffffffff021916908373ffffffffffffffffffffffffffffffffffffffff1602179055508173ffffffffffffffffffffffffffffffffffffffff168173ffffffffffffffffffffffffffffffffffffffff167f8be0079c531659141344cd1fd0a4f28419497f9722a3daafe3b4186f6b6457e060405160405180910390a35050565b60006012905090565b600073ffffffffffffffffffffffffffffffffffffffff168273ffffffffffffffffffffffffffffffffffffffff16036102d65760006040517fec442f050000000000000000000000000000000000000000000000000000000081526004016102cd919061090c565b60405180910390fd5b6102e8600083836102ec60201b60201c565b5050565b600073ffffffffffffffffffffffffffffffffffffffff168373ffffffffffffffffffffffffffffffffffffffff160361033e5780600260008282546103329190610b23565b92505081905550610411565b60008060008573ffffffffffffffffffffffffffffffffffffffff1673ffffffffffffffffffffffffffffffffffffffff168152602001908152602001600020549050818110156103ca578381836040517fe450d38c0000000000000000000000000000000000000000000000000000000081526004016103c193929190610b66565b60405180910390fd5b8181036000808673ffffffffffffffffffffffffffffffffffffffff1673ffffffffffffffffffffffffffffffffffffffff16815260200190815260200160002081905550505b600073ffffffffffffffffffffffffffffffffffffffff168273ffffffffffffffffffffffffffffffffffffffff160361045a57806002600082825403925050819055506104a7565b806000808473ffffffffffffffffffffffffffffffffffffffff1673ffffffffffffffffffffffffffffffffffffffff168152602001908152602001600020600082825401925050819055505b8173ffffffffffffffffffffffffffffffffffffffff168373ffffffffffffffffffffffffffffffffffffffff167fddf252ad1be2c89b69c2b068fc378daa952ba7f163c4a11628f55a4df523b3ef836040516105049190610b9d565b60405180910390a3505050565b600080fd5b6000819050919050565b61052981610516565b811461053457600080fd5b50565b60008151905061054681610520565b92915050565b6000806000806080858703121561056657610565610511565b5b600061057487828801610537565b945050602061058587828801610537565b935050604061059687828801610537565b92505060606105a787828801610537565b91505092959194509250565b600081519050919050565b7f4e487b7100000000000000000000000000000000000000000000000000000000600052604160045260246000fd5b7f4e487b7100000000000000000000000000000000000000000000000000000000600052602260045260246000fd5b6000600282049050600182168061063457607f821691505b602082108103610647576106466105ed565b5b50919050565b60008190508160005260206000209050919050565b60006020601f8301049050919050565b600082821b905092915050565b6000600883026106af7fffffffffffffffffffffffffffffffffffffffffffffffffffffffffffffffff82610672565b6106b98683610672565b95508019841693508086168417925050509392505050565b6000819050919050565b60006106f66106f16106ec84610516565b6106d1565b610516565b9050919050565b6000819050919050565b610710836106db565b61072461071c826106fd565b84845461067f565b825550505050565b600090565b61073961072c565b610744818484610707565b505050565b5b818110156107685761075d600082610731565b60018101905061074a565b5050565b601f8211156107ad5761077e8161064d565b61078784610662565b81016020851015610796578190505b6107aa6107a285610662565b830182610749565b50505b505050565b600082821c905092915050565b60006107d0600019846008026107b2565b1980831691505092915050565b60006107e983836107bf565b9150826002028217905092915050565b610802826105b3565b67ffffffffffffffff81111561081b5761081a6105be565b5b610825825461061c565b61083082828561076c565b600060209050601f8311600181146108635760008415610851578287015190505b61085b85826107dd565b8655506108c3565b601f1984166108718661064d565b60005b8281101561089957848901518255600182019150602085019450602081019050610874565b868310156108b657848901516108b2601f8916826107bf565b8355505b6001600288020188555050505b505050505050565b600073ffffffffffffffffffffffffffffffffffffffff82169050919050565b60006108f6826108cb565b9050919050565b610906816108eb565b82525050565b600060208201905061092160008301846108fd565b92915050565b7f4e487b7100000000000000000000000000000000000000000000000000000000600052601160045260246000fd5b60008160011c9050919050565b6000808291508390505b60018511156109ad5780860481111561098957610988610927565b5b60018516156109985780820291505b80810290506109a685610956565b945061096d565b94509492505050565b6000826109c65760019050610a82565b816109d45760009050610a82565b81600181146109ea57600281146109f457610a23565b6001915050610a82565b60ff841115610a0657610a05610927565b5b8360020a915084821115610a1d57610a1c610927565b5b50610a82565b5060208310610133831016604e8410600b8410161715610a585782820a905083811115610a5357610a52610927565b5b610a82565b610a658484846001610963565b92509050818404811115610a7c57610a7b610927565b5b81810290505b9392505050565b600060ff82169050919050565b6000610aa182610516565b9150610aac83610a89565b9250610ad97fffffffffffffffffffffffffffffffffffffffffffffffffffffffffffffffff84846109b6565b905092915050565b6000610aec82610516565b9150610af783610516565b9250828202610b0581610516565b91508282048414831517610b1c57610b1b610927565b5b5092915050565b6000610b2e82610516565b9150610b3983610516565b9250828201905080821115610b5157610b50610927565b5b92915050565b610b6081610516565b82525050565b6000606082019050610b7b60008301866108fd565b610b886020830185610b57565b610b956040830184610b57565b949350505050565b6000602082019050610bb26000830184610b57565b92915050565b6118f080610bc76000396000f3fe6080604052600436106101235760003560e01c80637d6b6ca8116100a0578063d96a094a11610064578063d96a094a146103e2578063dd62ed3e146103fe578063e4849b321461043b578063f2fde38b14610464578063fc37987b1461048d5761012a565b80637d6b6ca8146102fd5780638da5cb5b1461032657806395d89b4114610351578063a9059cbb1461037c578063ac6af280146103b95761012a565b80633bed33ce116100e75780633bed33ce1461022a5780635c0b0dec146102535780636217229b1461027e57806370a08231146102a9578063715018a6146102e65761012a565b806306fdde031461012f578063095ea7b31461015a57806318160ddd1461019757806323b872dd146101c2578063313ce567146101ff5761012a565b3661012a57005b600080fd5b34801561013b57600080fd5b506101446104b8565b6040516101519190611219565b60405180910390f35b34801561016657600080fd5b50610181600480360381019061017c91906112d4565b61054a565b60405161018e919061132f565b60405180910390f35b3480156101a357600080fd5b506101ac61056d565b6040516101b99190611359565b60405180910390f35b3480156101ce57600080fd5b506101e960048036038101906101e49190611374565b610577565b6040516101f6919061132f565b60405180910390f35b34801561020b57600080fd5b506102146105a6565b60405161022191906113e3565b60405180910390f35b34801561023657600080fd5b50610251600480360381019061024c91906113fe565b6105af565b005b34801561025f57600080fd5b50610268610644565b6040516102759190611359565b60405180910390f35b34801561028a57600080fd5b5061029361064a565b6040516102a09190611359565b60405180910390f35b3480156102b557600080fd5b506102d060048036038101906102cb919061142b565b610650565b6040516102dd9190611359565b60405180910390f35b3480156102f257600080fd5b506102fb610698565b005b34801561030957600080fd5b50610324600480360381019061031f91906113fe565b6106ac565b005b34801561033257600080fd5b5061033b6106be565b6040516103489190611467565b60405180910390f35b34801561035d57600080fd5b506103666106e8565b6040516103739190611219565b60405180910390f35b34801561038857600080fd5b506103a3600480360381019061039e91906112d4565b61077a565b6040516103b0919061132f565b60405180910390f35b3480156103c557600080fd5b506103e060048036038101906103db9190611482565b61079d565b005b6103fc60048036038101906103f791906113fe565b6107b7565b005b34801561040a57600080fd5b50610425600480360381019061042091906114c2565b610880565b6040516104329190611359565b60405180910390f35b34801561044757600080fd5b50610462600480360381019061045d91906113fe565b610907565b005b34801561047057600080fd5b5061048b6004803603810190610486919061142b565b610a11565b005b34801561049957600080fd5b506104a2610a97565b6040516104af9190611359565b60405180910390f35b6060600380546104c790611531565b80601f01602080910402602001604051908101604052809291908181526020018280546104f390611531565b80156105405780601f1061051557610100808354040283529160200191610540565b820191906000526020600020905b81548152906001019060200180831161052357829003601f168201915b5050505050905090565b600080610555610a9d565b9050610562818585610aa5565b600191505092915050565b6000600254905090565b600080610582610a9d565b905061058f858285610ab7565b61059a858585610b4c565b60019150509392505050565b60006012905090565b6105b7610c40565b804710156105fa576040517f08c379a00000000000000000000000000000000000000000000000000000000081526004016105f1906115ae565b60405180910390fd5b3373ffffffffffffffffffffffffffffffffffffffff166108fc829081150290604051600060405180830381858888f19350505050158015610640573d6000803e3d6000fd5b5050565b60085481565b60065481565b60008060008373ffffffffffffffffffffffffffffffffffffffff1673ffffffffffffffffffffffffffffffffffffffff168152602001908152602001600020549050919050565b6106a0610c40565b6106aa6000610cc7565b565b6106b4610c40565b8060088190555050565b6000600560009054906101000a900473ffffffffffffffffffffffffffffffffffffffff16905090565b6060600480546106f790611531565b80601f016020809104026020016040519081016040528092919081815260200182805461072390611531565b80156107705780601f1061074557610100808354040283529160200191610770565b820191906000526020600020905b81548152906001019060200180831161075357829003601f168201915b5050505050905090565b600080610785610a9d565b9050610792818585610b4c565b600191505092915050565b6107a5610c40565b81600681905550806007819055505050565b6000600854600654836107ca91906115fd565b6107d4919061166e565b9050803414610818576040517f08c379a000000000000000000000000000000000000000000000000000000000815260040161080f906116eb565b60405180910390fd5b816108296108246106be565b610650565b101561086a576040517f08c379a000000000000000000000000000000000000000000000000000000000815260040161086190611757565b60405180910390fd5b61087c6108756106be565b3384610b4c565b5050565b6000600160008473ffffffffffffffffffffffffffffffffffffffff1673ffffffffffffffffffffffffffffffffffffffff16815260200190815260200160002060008373ffffffffffffffffffffffffffffffffffffffff1673ffffffffffffffffffffffffffffffffffffffff16815260200190815260200160002054905092915050565b8061091133610650565b1015610952576040517f08c379a0000000000000000000000000000000000000000000000000000000008152600401610949906117c3565b60405180910390fd5b60006008546007548361096591906115fd565b61096f919061166e565b9050804710156109b4576040517f08c379a00000000000000000000000000000000000000000000000000000000081526004016109ab9061182f565b60405180910390fd5b6109c6336109c06106be565b84610b4c565b3373ffffffffffffffffffffffffffffffffffffffff166108fc829081150290604051600060405180830381858888f19350505050158015610a0c573d6000803e3d6000fd5b505050565b610a19610c40565b600073ffffffffffffffffffffffffffffffffffffffff168173ffffffffffffffffffffffffffffffffffffffff1603610a8b5760006040517f1e4fbdf7000000000000000000000000000000000000000000000000000000008152600401610a829190611467565b60405180910390fd5b610a9481610cc7565b50565b60075481565b600033905090565b610ab28383836001610d8d565b505050565b6000610ac38484610880565b90507fffffffffffffffffffffffffffffffffffffffffffffffffffffffffffffffff811015610b465781811015610b36578281836040517ffb8f41b2000000000000000000000000000000000000000000000000000000008152600401610b2d9392919061184f565b60405180910390fd5b610b4584848484036000610d8d565b5b50505050565b600073ffffffffffffffffffffffffffffffffffffffff168373ffffffffffffffffffffffffffffffffffffffff1603610bbe5760006040517f96c6fd1e000000000000000000000000000000000000000000000000000000008152600401610bb59190611467565b60405180910390fd5b600073ffffffffffffffffffffffffffffffffffffffff168273ffffffffffffffffffffffffffffffffffffffff1603610c305760006040517fec442f05000000000000000000000000000000000000000000000000000000008152600401610c279190611467565b60405180910390fd5b610c3b838383610f64565b505050565b610c48610a9d565b73ffffffffffffffffffffffffffffffffffffffff16610c666106be565b73ffffffffffffffffffffffffffffffffffffffff1614610cc557610c89610a9d565b6040517f118cdaa7000000000000000000000000000000000000000000000000000000008152600401610cbc9190611467565b60405180910390fd5b565b6000600560009054906101000a900473ffffffffffffffffffffffffffffffffffffffff16905081600560006101000a81548173ffffffffffffffffffffffffffffffffffffffff021916908373ffffffffffffffffffffffffffffffffffffffff1602179055508173ffffffffffffffffffffffffffffffffffffffff168173ffffffffffffffffffffffffffffffffffffffff167f8be0079c531659141344cd1fd0a4f28419497f9722a3daafe3b4186f6b6457e060405160405180910390a35050565b600073ffffffffffffffffffffffffffffffffffffffff168473ffffffffffffffffffffffffffffffffffffffff1603610dff5760006040517fe602df05000000000000000000000000000000000000000000000000000000008152600401610df69190611467565b60405180910390fd5b600073ffffffffffffffffffffffffffffffffffffffff168373ffffffffffffffffffffffffffffffffffffffff1603610e715760006040517f94280d62000000000000000000000000000000000000000000000000000000008152600401610e689190611467565b60405180910390fd5b81600160008673ffffffffffffffffffffffffffffffffffffffff1673ffffffffffffffffffffffffffffffffffffffff16815260200190815260200160002060008573ffffffffffffffffffffffffffffffffffffffff1673ffffffffffffffffffffffffffffffffffffffff168152602001908152602001600020819055508015610f5e578273ffffffffffffffffffffffffffffffffffffffff168473ffffffffffffffffffffffffffffffffffffffff167f8c5be1e5ebec7d5bd14f71427d1e84f3dd0314c0f7b2291e5b200ac8c7c3b92584604051610f559190611359565b60405180910390a35b50505050565b600073ffffffffffffffffffffffffffffffffffffffff168373ffffffffffffffffffffffffffffffffffffffff1603610fb6578060026000828254610faa9190611886565b92505081905550611089565b60008060008573ffffffffffffffffffffffffffffffffffffffff1673ffffffffffffffffffffffffffffffffffffffff16815260200190815260200160002054905081811015611042578381836040517fe450d38c0000000000000000000000000000000000000000000000000000000081526004016110399392919061184f565b60405180910390fd5b8181036000808673ffffffffffffffffffffffffffffffffffffffff1673ffffffffffffffffffffffffffffffffffffffff16815260200190815260200160002081905550505b600073ffffffffffffffffffffffffffffffffffffffff168273ffffffffffffffffffffffffffffffffffffffff16036110d2578060026000828254039250508190555061111f565b806000808473ffffffffffffffffffffffffffffffffffffffff1673ffffffffffffffffffffffffffffffffffffffff168152602001908152602001600020600082825401925050819055505b8173ffffffffffffffffffffffffffffffffffffffff168373ffffffffffffffffffffffffffffffffffffffff167fddf252ad1be2c89b69c2b068fc378daa952ba7f163c4a11628f55a4df523b3ef8360405161117c9190611359565b60405180910390a3505050565b600081519050919050565b600082825260208201905092915050565b60005b838110156111c35780820151818401526020810190506111a8565b60008484015250505050565b6000601f19601f8301169050919050565b60006111eb82611189565b6111f58185611194565b93506112058185602086016111a5565b61120e816111cf565b840191505092915050565b6000602082019050818103600083015261123381846111e0565b905092915050565b600080fd5b600073ffffffffffffffffffffffffffffffffffffffff82169050919050565b600061126b82611240565b9050919050565b61127b81611260565b811461128657600080fd5b50565b60008135905061129881611272565b92915050565b6000819050919050565b6112b18161129e565b81146112bc57600080fd5b50565b6000813590506112ce816112a8565b92915050565b600080604083850312156112eb576112ea61123b565b5b60006112f985828601611289565b925050602061130a858286016112bf565b9150509250929050565b60008115159050919050565b61132981611314565b82525050565b60006020820190506113446000830184611320565b92915050565b6113538161129e565b82525050565b600060208201905061136e600083018461134a565b92915050565b60008060006060848603121561138d5761138c61123b565b5b600061139b86828701611289565b93505060206113ac86828701611289565b92505060406113bd868287016112bf565b9150509250925092565b600060ff82169050919050565b6113dd816113c7565b82525050565b60006020820190506113f860008301846113d4565b92915050565b6000602082840312156114145761141361123b565b5b6000611422848285016112bf565b91505092915050565b6000602082840312156114415761144061123b565b5b600061144f84828501611289565b91505092915050565b61146181611260565b82525050565b600060208201905061147c6000830184611458565b92915050565b600080604083850312156114995761149861123b565b5b60006114a7858286016112bf565b92505060206114b8858286016112bf565b9150509250929050565b600080604083850312156114d9576114d861123b565b5b60006114e785828601611289565b92505060206114f885828601611289565b9150509250929050565b7f4e487b7100000000000000000000000000000000000000000000000000000000600052602260045260246000fd5b6000600282049050600182168061154957607f821691505b60208210810361155c5761155b611502565b5b50919050565b7f496e73756666696369656e742045544820696e20636f6e747261637400000000600082015250565b6000611598601c83611194565b91506115a382611562565b602082019050919050565b600060208201905081810360008301526115c78161158b565b9050919050565b7f4e487b7100000000000000000000000000000000000000000000000000000000600052601160045260246000fd5b60006116088261129e565b91506116138361129e565b92508282026116218161129e565b91508282048414831517611638576116376115ce565b5b5092915050565b7f4e487b7100000000000000000000000000000000000000000000000000000000600052601260045260246000fd5b60006116798261129e565b91506116848361129e565b9250826116945761169361163f565b5b828204905092915050565b7f496e636f72726563742045544820616d6f756e742073656e7400000000000000600082015250565b60006116d5601983611194565b91506116e08261169f565b602082019050919050565b60006020820190508181036000830152611704816116c8565b9050919050565b7f4f776e657220646f6573206e6f74206861766520656e6f756768204743000000600082015250565b6000611741601d83611194565b915061174c8261170b565b602082019050919050565b6000602082019050818103600083015261177081611734565b9050919050565b7f496e73756666696369656e742047432062616c616e6365000000000000000000600082015250565b60006117ad601783611194565b91506117b882611777565b602082019050919050565b600060208201905081810360008301526117dc816117a0565b9050919050565b7f436f6e74726163742068617320696e73756666696369656e7420455448000000600082015250565b6000611819601d83611194565b9150611824826117e3565b602082019050919050565b600060208201905081810360008301526118488161180c565b9050919050565b60006060820190506118646000830186611458565b611871602083018561134a565b61187e604083018461134a565b949350505050565b60006118918261129e565b915061189c8361129e565b92508282019050808211156118b4576118b36115ce565b5b9291505056fea264697066735822122091417dec554cd592b9277a28ed9312299cf2a705c69bd9d346a0b7189ef1729164736f6c634300081c0033",
  "linkReferences": {},
  "deployedLinkReferences": {}
}