{
  "_format": "hh-sol-artifact-1",
  "contractName": "UserProfile",
  "sourceName": "contracts/UserProfile.sol",
  "abi": [
    {
      "anonymous": false,
      "inputs": [
        {
          "indexed": true,
          "internalType": "address",
          "name": "user",
          "type": "address"
        },
        {
          "indexed": false,
          "internalType": "string",
          "name": "username",
          "type": "string"
        },
        {
          "indexed": false,
          "internalType": "string",
          "name": "email",
          "type": "string"
        }
      ],
      "name": "UserRegistered",
      "type": "event"
    },
    {
      "inputs": [
        {
          "internalType": "address",
          "name": "user",
          "type": "address"
        }
      ],
      "name": "getUser",
      "outputs": [
        {
          "internalType": "string",
          "name": "",
          "type": "string"
        },
        {
          "internalType": "string",
          "name": "",
          "type": "string"
        },
        {
          "internalType": "address",
          "name": "",
          "type": "address"
        }
      ],
      "stateMutability": "view",
      "type": "function"
    },
    {
      "inputs": [
        {
          "internalType": "string",
          "name": "username",
          "type": "string"
        },
        {
          "internalType": "string",
          "name": "email",
          "type": "string"
        }
      ],
      "name": "registerUser",
      "outputs": [],
      "stateMutability": "nonpayable",
      "type": "function"
    }
  ],
  "bytecode": "0x6080604052348015600f57600080fd5b50610a2f8061001f6000396000f3fe608060405234801561001057600080fd5b50600436106100365760003560e01c80631d2e4afd1461003b5780636f77926b14610057575b600080fd5b61005560048036038101906100509190610504565b610089565b005b610071600480360381019061006c91906105da565b6101c2565b60405161008093929190610695565b60405180910390f35b60405180606001604052808381526020018281526020013373ffffffffffffffffffffffffffffffffffffffff168152506000803373ffffffffffffffffffffffffffffffffffffffff1673ffffffffffffffffffffffffffffffffffffffff168152602001908152602001600020600082015181600001908161010d91906108f0565b50602082015181600101908161012391906108f0565b5060408201518160020160006101000a81548173ffffffffffffffffffffffffffffffffffffffff021916908373ffffffffffffffffffffffffffffffffffffffff1602179055509050503373ffffffffffffffffffffffffffffffffffffffff167f92822564bab8864c3a47b34e8d23fbce5c46234eb5da261f94087b995ac0f33b83836040516101b69291906109c2565b60405180910390a25050565b6060806000806000808673ffffffffffffffffffffffffffffffffffffffff1673ffffffffffffffffffffffffffffffffffffffff16815260200190815260200160002060405180606001604052908160008201805461022190610709565b80601f016020809104026020016040519081016040528092919081815260200182805461024d90610709565b801561029a5780601f1061026f5761010080835404028352916020019161029a565b820191906000526020600020905b81548152906001019060200180831161027d57829003601f168201915b505050505081526020016001820180546102b390610709565b80601f01602080910402602001604051908101604052809291908181526020018280546102df90610709565b801561032c5780601f106103015761010080835404028352916020019161032c565b820191906000526020600020905b81548152906001019060200180831161030f57829003601f168201915b505050505081526020016002820160009054906101000a900473ffffffffffffffffffffffffffffffffffffffff1673ffffffffffffffffffffffffffffffffffffffff1673ffffffffffffffffffffffffffffffffffffffff16815250509050806000015181602001518260400151935093509350509193909250565b6000604051905090565b600080fd5b600080fd5b600080fd5b600080fd5b6000601f19601f8301169050919050565b7f4e487b7100000000000000000000000000000000000000000000000000000000600052604160045260246000fd5b610411826103c8565b810181811067ffffffffffffffff821117156104305761042f6103d9565b5b80604052505050565b60006104436103aa565b905061044f8282610408565b919050565b600067ffffffffffffffff82111561046f5761046e6103d9565b5b610478826103c8565b9050602081019050919050565b82818337600083830152505050565b60006104a76104a284610454565b610439565b9050828152602081018484840111156104c3576104c26103c3565b5b6104ce848285610485565b509392505050565b600082601f8301126104eb576104ea6103be565b5b81356104fb848260208601610494565b91505092915050565b6000806040838503121561051b5761051a6103b4565b5b600083013567ffffffffffffffff811115610539576105386103b9565b5b610545858286016104d6565b925050602083013567ffffffffffffffff811115610566576105656103b9565b5b610572858286016104d6565b9150509250929050565b600073ffffffffffffffffffffffffffffffffffffffff82169050919050565b60006105a78261057c565b9050919050565b6105b78161059c565b81146105c257600080fd5b50565b6000813590506105d4816105ae565b92915050565b6000602082840312156105f0576105ef6103b4565b5b60006105fe848285016105c5565b91505092915050565b600081519050919050565b600082825260208201905092915050565b60005b83811015610641578082015181840152602081019050610626565b60008484015250505050565b600061065882610607565b6106628185610612565b9350610672818560208601610623565b61067b816103c8565b840191505092915050565b61068f8161059c565b82525050565b600060608201905081810360008301526106af818661064d565b905081810360208301526106c3818561064d565b90506106d26040830184610686565b949350505050565b7f4e487b7100000000000000000000000000000000000000000000000000000000600052602260045260246000fd5b6000600282049050600182168061072157607f821691505b602082108103610734576107336106da565b5b50919050565b60008190508160005260206000209050919050565b60006020601f8301049050919050565b600082821b905092915050565b60006008830261079c7fffffffffffffffffffffffffffffffffffffffffffffffffffffffffffffffff8261075f565b6107a6868361075f565b95508019841693508086168417925050509392505050565b6000819050919050565b6000819050919050565b60006107ed6107e86107e3846107be565b6107c8565b6107be565b9050919050565b6000819050919050565b610807836107d2565b61081b610813826107f4565b84845461076c565b825550505050565b600090565b610830610823565b61083b8184846107fe565b505050565b5b8181101561085f57610854600082610828565b600181019050610841565b5050565b601f8211156108a4576108758161073a565b61087e8461074f565b8101602085101561088d578190505b6108a16108998561074f565b830182610840565b50505b505050565b600082821c905092915050565b60006108c7600019846008026108a9565b1980831691505092915050565b60006108e083836108b6565b9150826002028217905092915050565b6108f982610607565b67ffffffffffffffff811115610912576109116103d9565b5b61091c8254610709565b610927828285610863565b600060209050601f83116001811461095a5760008415610948578287015190505b61095285826108d4565b8655506109ba565b601f1984166109688661073a565b60005b828110156109905784890151825560018201915060208501945060208101905061096b565b868310156109ad57848901516109a9601f8916826108b6565b8355505b6001600288020188555050505b505050505050565b600060408201905081810360008301526109dc818561064d565b905081810360208301526109f0818461064d565b9050939250505056fea2646970667358221220573022eb36990bdfd0e6faa97333d42f46c772fdc9429fd3e8e7f859de299b7664736f6c634300081c0033",
  "linkReferences": {},
  "deployedLinkReferences": {}
}